S01200004D792050726F6A6563742E7372656355
S11300000C9434000C9446000C9446000C94460066
S11300100C9446000C9446000C9446000C94460044
S11300200C9446000C9446000C9446000C94460034
S11300300C9446000C9446000C9451000C94460019
S11300400C9446000C9446000C9446000C94460014
S11300500C9446000C9446000C9446000C94460004
S11300600C9446000C94460011241FBECFEFD8E038
S1130070DEBFCDBF21E0A0E0B1E001C01D92A03001
S1130080B207E1F70E944B000C946C000C94000042
S113009081E284B908950E9448000E946300789424
S11300A0FFCF1F920F920FB60F9211248F939F933D
S11300B095B180E2892785B99F918F910F900FBEEA
S11300C00F901F90189582E084BD95E095BD9FEF39
S10F00D097BD80936E000895F894FFCF54
S9030000FC
